:020000020000FC
:0C0000000C9407030C9469000C941A0186
:040050000C94CB0140
:04008C000C941A02B4
:0400B4000C9469023D
:1000C8000C94B80200000000533A6F935F934F936B
:1000D800DF93CF939F938F934FB74F93703009F06F
:1000E800FDCF7F6041E24C8341E24D8361E805D555
:1000F8001ED561E20DD51BD561E20AD518D53FD5CD
:10010800D2E0C0E04427488349834A834B83403088
:1001180049F0413061F0423079F05FEF5093980038
:100128000C94A30050E0509398000C94A30050E165
:10013800509398000C94A30050E5509398005527CD
:1001480050939900403049F0413061F0423079F0E5
:100158005FEF50939A000C94BE0050E050939A00C1
:100168000C94BE0050E150939A000C94BE0050E5E8
:1001780050939A00552750939B00403049F04130E6
:1001880061F0423079F05FEF50939C000C94D900F5
:1001980050E050939C000C94D90050E150939C007F
:1001A8000C94D90050E550939C00552750939D001E
:1001B800403049F0413061F0423079F05FEF5093C0
:1001C800AC000C94F40050E05093AC000C94F40094
:1001D80050E15093AC000C94F40050E55093AC00FF
:1001E80055275093AD0064EC88D4A1D460E390D433
:1001F8009ED467EC82D49BD460E38AD498D46AEC0A
:100208007CD495D460E384D492D46DEC76D48FD426
:1002180060E37ED48CD477274F914FBF8F919F9105
:10022800CF91DF914F915F916F9118956F935F9385
:100238004F93DF93CF939F938F934FB74F93703024
:1002480009F0FDCF7F6041E24C8341E24D8361E8D4
:1002580054D46DD461E25CD46AD461E259D467D4D1
:100268008ED4D2E0C0E04427488349834A834B8335
:10027800403049F0413061F0423079F05FEF5093FF
:1002880098000C94540150E0509398000C94540139
:1002980050E1509398000C94540150E55093980005
:1002A800552750939900403049F0413061F0423071
:1002B80079F05FEF50939A000C946F0150E05093DF
:1002C8009A000C946F0150E150939A000C946F01BE
:1002D80050E550939A00552750939B00403049F0C1
:1002E800413061F0423079F05FEF50939C000C94FC
:1002F8008A0150E050939C000C948A0150E150937D
:100308009C000C948A0150E550939C00552750930B
:100318009D00403049F0413061F0423079F05FEFA4
:100328005093AC000C94A50150E05093AC000C9491
:10033800A50150E15093AC000C94A50150E55093F1
:10034800AC0055275093AD0064ECD7D3F0D360E3ED
:10035800DFD3EDD367ECD1D3EAD360E3D9D3E7D3C6
:100368006AECCBD3E4D360E3D3D3E1D36DECC5D34C
:10037800DED360E3CDD3DBD377274F914FBF8F9187
:100388009F91CF91DF914F915F916F9118956F93E6
:100398005F934F93DF93CF939F938F934FB74F9371
:1003A800C6E0D2E08991988101968A3F99F590300C
:1003B80089F540916F004E7F40936F00C0E0D2E016
:1003C8004881403049F0413061F0423079F05FEFC8
:1003D800509398000C94FD0150E0509398000C94B1
:1003E800FD0150E1509398000C94FD0150E55093A5
:1003F800980055275093990064EC7FD398D3405DBB
:10040800642F86D394D37E7FC6E0D2E044274993F5
:10041800488302C098838A934F914FBF8F919F91D1
:10042800CF91DF914F915F916F9118956F935F9383
:100438004F93DF93CF939F938F934FB74F93C8E01A
:10044800D2E08991988101968A3F99F5903089F593
:10045800409171004E7F40937100C0E0D2E0498125
:10046800403049F0413061F0423079F05FEF50930D
:100478009A000C944C0250E050939A000C944C0251
:1004880050E150939A000C944C0250E550939A0016
:10049800552750939B0067EC30D349D3405D642FB8
:1004A80037D345D37D7FC8E0D2E0442749934883BA
:1004B80002C098838A934F914FBF8F919F91CF919C
:1004C800DF914F915F916F9118956F935F934F9361
:1004D800DF93CF939F938F934FB74F93CAE0D2E0A8
:1004E8008991988101968A3F99F5903089F54091D4
:1004F80072004E7F40937200C0E0D2E04A814030E3
:1005080049F0413061F0423079F05FEF50939C0040
:100518000C949B0250E050939C000C949B0250E179
:1005280050939C000C949B0250E550939C005527D7
:1005380050939D006AECE1D2FAD2405D642FE8D274
:10054800F6D27B7FCAE0D2E044274993488302C0B1
:1005580098838A934F914FBF8F919F91CF91DF914D
:100568004F915F916F9118956F935F934F93DF93BE
:10057800CF939F938F934FB74F93CCE0D2E089915D
:10058800988101968A3F99F5903089F540917300DA
:100598004E7F40937300C0E0D2E04B81403049F079
:1005A800413061F0423079F05FEF5093AC000C9429
:1005B800EA0250E05093AC000C94EA0250E15093E8
:1005C800AC000C94EA0250E55093AC0055275093C8
:1005D800AD006DEC92D2ABD2405D642F99D2A7D218
:1005E800777FCCE0D2E044274993488302C09883C0
:1005F8008A934F914FBF8F919F91CF91DF914F91E8
:100608005F916F911895F8944AE0409369004DB353
:1006180043604DBB41E04093800041E0409320019E
:1006280043E0409381004093210149EA40939000C0
:1006380043E04093910049E04093A00043E0409399
:10064800A100789440EF40930A0148E34DB940E295
:10065800409301014FEF4DBF41E24EBF4FEF47B905
:1006680041B9442748B942B968E347D260D281D238
:1006780068E343D25CD26ED268E33FD258D268E3D3
:100688003CD255D268E039D252D261E036D24FD24C
:1006980066E033D24CD26CE030D249D27727C6E03C
:1006A800D2E0442749934883C8E0D2E044274993DD
:1006B8004883CAE0D2E0442749934883CCE0D2E09B
:1006C800442749934883F0E0ECECD2E0C0E04427AB
:1006D8005591599343954630DCF3D2E0C0E0488108
:1006E800403049F0413061F0423079F05FEF50938B
:1006F80098000C948C0350E0509398000C948C0351
:1007080050E1509398000C948C0350E55093980056
:100718005527509399004981403049F0413061F0A4
:10072800423079F05FEF50939A000C94A80350E0A0
:1007380050939A000C94A80350E150939A000C949B
:10074800A80350E550939A00552750939B004A817F
:10075800403049F0413061F0423079F05FEF50931A
:100768009C000C94C40350E050939C000C94C40368
:1007780050E150939C000C94C40350E550939C00A6
:10078800552750939D004B81403049F0413061F02E
:10079800423079F05FEF5093AC000C94E00350E0E6
:1007A8005093AC000C94E00350E15093AC000C94CF
:1007B800E00350E55093AC0055275093AD0060E23C
:1007C800A7D1B5D14C81642FA3D1B1D14D81642F6C
:1007D8009FD1ADD160E29CD1AAD167E599D1A7D1CB
:1007E80061E396D1A4D160E293D1A1D167E590D11C
:1007F8009ED162E38DD19BD160E28AD198D167E521
:1008080087D195D163E384D192D160E281D18FD130
:1008180067E57ED18CD164E37BD189D160EC6DD161
:1008280086D160E275D183D160E272D180D160E275
:100838006FD17DD160E26CD17AD14881405D642F5F
:1008480067D175D160E264D172D160E261D16FD1B4
:100858004981405D642F5CD16AD160E259D167D18A
:1008680060E256D164D14A81405D642F51D15FD195
:1008780060E24ED15CD160E24BD159D14B81405DF1
:10088800642F46D154D13FEE11271430E1F3309351
:100898000B014FEF4A95F1F7409109014F704F3026
:1008A80059F021E00027043039F0542F522341F049
:1008B8000395220F0C945704330F13950C94490495
:1008C800003041F0013051F1023011F00C94DA049B
:1008D8000C94B604123010F00C94470473FD0C9479
:1008E80047047860D2E0C0E04B81103039F0542FD3
:1008F800403049F04A954B830C948704542F433079
:1009080011F043954B830000451719F4777F0C9439
:10091800FA0441E0409373000C94FA04123010F08A
:100928000C94470472FD0C9447047460D2E0C0E054
:100938004A81103039F0542F403049F04A954A83A3
:100948000C94AB04542F433011F043954A830000B4
:10095800451719F47B7F0C94FA0441E04093720028
:100968000C94FA04123010F00C94470471FD0C94A6
:1009780047047260D2E0C0E04981103039F0542F4A
:10098800403049F04A9549830C94CF04542F4330A2
:1009980011F0439549830000451719F47D7F0C94A5
:1009A800FA0441E0409371000C94FA04123068F59F
:1009B80070FD0C9447047160D2E0C0E048811030AB
:1009C80039F0542F403049F04A9548830C94F1048B
:1009D800542F433011F0439548830000451719F40C
:1009E8007E7F0C94FA0441E040936F004CE44C8302
:1009F8004AE34D8361E881D09AD06CE489D097D0DE
:100A08006AE386D094D00C944704703009F0FDCF87
:100A18007F60123089F1D2E0C0E04881403039F07F
:100A280040E0488341E040936F000C941C057E7FB2
:100A38004981403039F040E0498341E040937100FA
:100A48000C9427057D7F4A81403039F040E04A8385
:100A580041E0409372000C9432057B7F4B8140301B
:100A680039F040E04B8341E0409373000C943D051E
:100A7800777F00000C946F05D2E0C0E048814330D6
:100A880039F043E0488341E040936F000C944D05F2
:100A98007E7F4981433039F043E0498341E0409308
:100AA80071000C9458057D7F4A81433039F043E04A
:100AB8004A8341E0409372000C9463057B7F4B812D
:100AC800433039F043E04B8341E0409373000C948A
:100AD8006E05777F000043E44C834AE34D8361E869
:100AE8000CD025D063E414D022D06AE311D01FD0F3
:100AF800703009F0FDCF0C94470468B90000169ACD
:100B08000000000000001698000000000000089592
:100B180068B9179A000000000000169A000000004B
:100B280000001698000000000000179808956F93C1
:100B3800662767B968B9159A0000169A0000000080
:100B4800000066B1169867FDF7CF15986FEF67B983
:100B58006F9108954F934FB74F938F939F939FE053
:100B68008CE90197F1F79F918F914F914FBF4F916A
:100B78000895F0DFEFDFEEDFEDDFECDF08954F9350
:100B88004FB74F9344E6F5DF4A95E9F74F914FBFCA
:040B98004F910895DC
:00000001FF
